:020000040800F2
:1000000000000320F1280108ED0A0108CD0B0108CA
:10001000E50B0108EB0B0108F10B010800000000E3
:10002000000000000000000000000000394200084D
:10003000050C01080000000071440008D3440008CA
:100040003D2901083D2901083D2901083D290108F4
:100050003D2901083D2901083D2901083D290108E4
:100060003D2901083D2901083D2901083D290108D4
:100070003D2901083D2901083D2901083D290108C4
:100080003D2901083D2901083D2901083D290108B4
:100090003D2901083D2901083D2901083D290108A4
:1000A0003D2901083D2901083D2901083D29010894
:1000B0003D2901083D2901083D2901083D29010884
:1000C0003D2901083D2901083D2901083D29010874
:1000D0003D2901083D2901083D2901083D29010864
:1000E0003D2901083D2901083D2901083D29010854
:1000F0003D2901083D2901083D2901083D29010844
:100100003D2901083D2901083D2901083D29010833
:100110003D2901083D2901083D2901083D29010823
:100120003D2901083D2901083D2901083D29010813
:100130003D2901083D2901083D2901083D29010803
:100140003D2901083D2901083D2901083D290108F3
:100150003D2901083D2901083D2901083D290108E3
:100160003D2901083D2901083D2901083D290108D3
:100170003D2901083D2901083D2901080000000032
:100180003D2901083D2901083D2901083D290108B3
:100190003D2901083D2901083D2901083D290108A3
:0C01A0003D2901083D2901083D29010806
:1001C00080B582B000AF7860391D0A23012204484F
:1001D00007F0F2FC002318460837BD4680BD00BF7B
:1001E0009884002080B400AF00231846BD465DF817
:1001F000047B704780B483B000AF78604FF0FF336A
:1002000018460C37BD465DF8047B704780B483B058
:1002100000AF786039603B684FF400525A600023A9
:1002200018460C37BD465DF8047B704780B483B038
:1002300000AF786039603B684FF400525A60002389
:1002400018460C37BD465DF8047B704780B483B018
:1002500000AF7860012318460C37BD465DF8047B7B
:10026000704780B485B000AFF860B9607A60002351
:1002700018461437BD465DF8047B704780B485B0DE
:1002800000AFF860B9607A604FF0FF33184614375A
:10029000BD465DF8047B704780B485B000AFF86060
:1002A000B9607A60002318461437BD465DF8047BB8
:1002B000704780B584B000AFF860B9607A607B6841
:1002C0009AB20A23B968044807F076FC7B6818469E
:1002D0001037BD4680BD00BF9884002080B485B033
:1002E00000AF78603960EFF30883FB600F4B1B6849
:1002F000002B02D10D4B0E4A1A600C4B1B68BB60E1
:10030000BA683B681344FA689A4202D24FF0FF334E
:1003100006E0064B1A683B681344044A1360BB6846
:1003200018461437BD465DF8047B7047CC090020A1
:100330000C86002080B485B000AFF860B9607A60A8
:10034000054B86221A604FF0FF3318461437BD461E
:100350005DF8047B704700BFE485002080B400AFE7
:10036000044B86221A604FF0FF331846BD465DF8F5
:10037000047B7047E485002080B400AF0123184659
:10038000BD465DF8047B704780B483B000AF7860F1
:100390003960054B86221A604FF0FF3318460C3740
:1003A000BD465DF8047B7047E485002080B483B0CF
:1003B00000AF7860054B86221A604FF0FF33184675
:1003C0000C37BD465DF8047B704700BFE485002014
:1003D00080B483B000AF7860044B86221A6000BFFF
:1003E0000C37BD465DF8047B704700BFE4850020F4
:1003F00080B483B000AF78603960054B1F221A606B
:100400004FF0FF3318460C37BD465DF8047B70474C
:10041000E485002080B483B000AF7860054B1F22D4
:100420001A604FF0FF3318460C37BD465DF8047B69
:10043000704700BFE485002080B582B000AF002384
:100440007B6000237B6004E010F01CF97B680133C3
:100450007B607B68002BF7D000BF0837BD4680BDAE
:1004600080B584B004AF10F099F8254812F004FB71
:10047000002010F02BFD012010F028FD214B224A16
:100480001A60204B4FF4E1325A601E4B00229A60F2
:100490001C4B0022DA601B4B00221A61194B002210
:1004A0009A61184B0C225A61164B0022DA611548EA
:1004B00007F0D2F90346002B01D000F0DEF800234C
:1004C000039300230293114B019302230093002313
:1004D0004FF400720E490F4801F078F9002303939E
:1004E000002302930C4B01930223009300234FF44B
:1004F00000720A490A4801F069F901F01FFEFEE79F
:10050000F86C01089884002000100140D0090020F8
:10051000086D010825050008D4090020146D0108A4
:100520004505000880B582B000AF7860002010F06B
:1005300055FD034812F0A0FAFA2001F02BFBF5E775
:10054000206D010880B582B000AF7860012010F006
:1005500045FD034812F090FA642001F01BFBF5E71B
:10056000346D010880B594B000AF0023BB602A4B06
:100570001B6C294A43F080531364274B1B6C03F018
:100580008053BB60BB6800237B60244B1B68234AFD
:1005900043F440431360214B1B6803F440437B60EA
:1005A0007B680123FB604FF480333B6102237B6255
:1005B0004FF48003BB620823FB624FF4B4733B63C8
:1005C00002237B630723BB6307F10C0318460EF07D
:1005D0007BFD0346002B01D000F04FF80FF0D8FB55
:1005E0000F23FB6302233B6400237B644FF4A0537F
:1005F000BB644FF48053FB6407F13C0305211846AC
:100600000EF08AFF0346002B01D000F036F800BF41
:100610005037BD4680BD00BF00380240007000402A
:1006200080B582B000AF7860012010F0A3FC00BF5D
:100630000837BD4680BD80B485B000AFF860B960B2
:100640001346FB800DE0FB681A78BB681B789A4262
:1006500001D0FB880BE0FB680133FB60BB68013312
:10066000BB60FB885A1EFA80002BECD10023184691
:100670001437BD465DF8047B704780B500AF01209C
:1006800010F078FCFEE700BF80B483B000AF786064
:100690007B6803F108027B685A607B684FF0FF3289
:1006A0009A607B6803F108027B68DA607B6803F17B
:1006B00008027B681A617B6800221A6000BF0C3751
:1006C000BD465DF8047B704780B483B000AF7860AE
:1006D0007B6800221A6100BF0C37BD465DF8047BC1
:1006E000704780B485B000AF786039607B685B6824
:1006F000FB603B68FA685A60FB689A683B689A60DE
:10070000FB689B683A685A60FB683A689A603B6885
:100710007A681A617B681B685A1C7B681A6000BF84
:100720001437BD465DF8047B704780B485B000AFD8
:10073000786039603B681B68BB60BB68B3F1FF3F02
:1007400003D17B681B69FB600CE07B680833FB60AE
:1007500002E0FB685B68FB60FB685B681B68BA686B
:100760009A42F6D2FB685A683B685A603B685B68FD
:100770003A689A603B68FA689A60FB683A685A601F
:100780003B687A681A617B681B685A1C7B681A6030
:1007900000BF1437BD465DF8047B704780B485B058
:1007A00000AF78607B681B69FB607B685B687A6878
:1007B00092689A607B689B687A6852685A60FB68A6
:1007C0005B687A689A4203D17B689A68FB685A60D2
:1007D0007B6800221A61FB681B685A1EFB681A605E
:1007E000FB681B6818461437BD465DF8047B7047EC
:1007F00080B584B000AF786039607B68FB60FB68CF
:10080000002B09D14FF0100383F31188BFF36F8FD2
:10081000BFF34F8FBB60FEE703F0D4FDFB681A689F
:10082000FB68DB6BF968096C01FB03F31A44FB6896
:100830005A60FB6800229A63FB681A68FB689A603A
:10084000FB681A68FB68DB6B013BF968096C01FB0C
:1008500003F31A44FB68DA60FB684FF0FF325A6416
:10086000FB684FF0FF329A643B68002B14D1FB68A1
:100870001B69002B1AD0FB681033184602F052F89F
:100880000346012B12D10D4B4FF080521A60BFF37B
:100890004F8FBFF36F8F09E0FB6810331846FFF7E7
:1008A000F3FEFB6824331846FFF7EEFE03F0B8FDB5
:1008B000012318461037BD4680BD00BF04ED00E09F
:1008C00080B58AB000AFF860B9601346FB710023B1
:1008D0003B62FB68002B09D14FF0100383F31188B2
:1008E000BFF36F8FBFF34F8FBB61FEE7BB68002B79
:1008F00002D100237B6205E0FB68BA6802FB03F3C8
:1009000001337B627B6A5433184603F06BFEF86157
:10091000FB69002B1BD0BB68002B03D1FB69FA6974
:100920001A6004E0FB6903F15402FB691A60FB6979
:10093000FA68DA63FB69BA681A640121F869FFF79B
:1009400057FFFB69FA7983F85020FB693B623B6AE9
:10095000002B09D14FF0100383F31188BFF36F8F81
:10096000BFF34F8F7B61FEE73B6A18462837BD46D1
:1009700080BD80B584B000AF0346FB71542003F006
:1009800031FEF860FB68002B30D0FB6800225A6013
:10099000FB6800221A60FB6800229A60FB68002254
:1009A000DA60FB6800229A63FB680122DA63FB6865
:1009B00000221A64FB684FF0FF325A64FB684FF064
:1009C000FF329A64FB68FA7983F85020FB68103391
:1009D0001846FFF759FEFB6824331846FFF754FE0C
:1009E000002300220021F86800F0ADF8FB681846EB
:1009F0001037BD4680BD90B587B000AF78607B688A
:100A00003B613B69002B09D14FF0100383F3118840
:100A1000BFF36F8FBFF34F8FFB60FEE73B695C68EE
:100A200002F01EFB03469C4211D13B69DB685A1E53
:100A30003B69DA603B69DB68002B05D100230022AB
:100A40000021386900F07FF801237B6101E0002379
:100A50007B617B6918461C37BD4690BD90B587B059
:100A600000AF786039607B683B613B69002B09D13E
:100A70004FF0100383F31188BFF36F8FBFF34F8FD5
:100A8000FB60FEE73B695C6802F0EAFA03469C42C1
:100A900007D13B69DB685A1C3B69DA6001237B6143
:100AA0000EE000233A680021386900F04BFA7861C3
:100AB0007B69012B04D13B69DB685A1C3B69DA6016
:100AC0007B6918461C37BD4690BD80B586B000AF27
:100AD000786039607B68002B09D14FF0100383F3F5
:100AE0001188BFF36F8FBFF34F8F3B61FEE73A680A
:100AF0007B689A4209D94FF0100383F31188BFF342
:100B00006F8FBFF34F8FFB60FEE7022200217868F2
:100B1000FFF7D6FE78617B69002B02D07B693A68CB
:100B20009A637B69002B09D14FF0100383F311887E
:100B3000BFF36F8FBFF34F8FBB60FEE77B69184633
:100B40001837BD4680BD80B58EB000AFF860B96083
:100B50007A603B6000237B63FB683B633B6B002B4D
:100B600009D14FF0100383F31188BFF36F8FBFF3E8
:100B70004F8FBB62FEE7BB68002B03D13B6B1B6C46
:100B8000002B01D1012300E00023002B09D14FF0FD
:100B9000100383F31188BFF36F8FBFF34F8F7B6216
:100BA000FEE73B68022B03D13B6BDB6B012B01D1D2
:100BB000012300E00023002B09D14FF0100383F341
:100BC0001188BFF36F8FBFF34F8F3B62FEE702F0D8
:100BD00057FA0346002B02D17B68002B01D1012379
:100BE00000E00023002B09D14FF0100383F311889C
:100BF000BFF36F8FBFF34F8FFB61FEE703F0E2FBA4
:100C00003B6B9A6B3B6BDB6B9A4202D33B68022BCC
:100C100029D13A68B968386B00F00FFCF8623B6B79
:100C20005B6A002B10D03B6B2433184601F07AFE30
:100C30000346012B13D13C4B4FF080521A60BFF397
:100C40004F8FBFF36F8F0AE0FB6A002B07D0364B44
:100C50004FF080521A60BFF34F8FBFF36F8F03F0D6
:100C6000DFFB01235CE07B68002B03D103F0D8FBA2
:100C7000002355E07B6B002B06D107F114031846C7
:100C800001F018FF01237B6303F0CAFB01F0BAFAFD
:100C900003F098FB3B6B5B6CB3F1FF3F02D13B6B06
:100CA00000225A643B6B9B6CB3F1FF3F02D13B6B5C
:100CB00000229A6403F0B4FB3A1D07F114031146B5
:100CC000184601F01BFF0346002B23D1386B00F0C0
:100CD000C8FC0346002B17D03B6B10337A681146D3
:100CE000184601F01DFD386B00F038FC01F098FA51
:100CF0000346002B82D10C4B4FF080521A60BFF399
:100D00004F8FBFF36F8F79E7386B00F027FC01F04E
:100D100087FA73E7386B00F021FC01F081FA0023B9
:100D200018463837BD4680BD04ED00E080B58EB072
:100D300000AFF860B9607A603B60FB683B633B6B77
:100D4000002B09D14FF0100383F31188BFF36F8F8D
:100D5000BFF34F8FBB62FEE7BB68002B03D13B6B39
:100D60001B6C002B01D1012300E00023002B09D1D3
:100D70004FF0100383F31188BFF36F8FBFF34F8FD2
:100D80007B62FEE73B68022B03D13B6BDB6B012BE5
:100D900001D1012300E00023002B09D14FF0100303
:100DA00083F31188BFF36F8FBFF34F8F3B62FEE772
:100DB00003F0D6FBEFF311824FF0100383F3118899
:100DC000BFF36F8FBFF34F8FFA61BB61FB69FB62AB
:100DD0003B6B9A6B3B6BDB6B9A4202D33B68022BFB
:100DE00024D13A68B968386B00F027FB3B6B9B6CE9
:100DF000B3F1FF3F12D13B6B5B6A002B13D03B6B0F
:100E00002433184601F08EFD0346002B0BD07B687F
:100E1000002B08D07B6801221A6004E03B6B9B6CBE
:100E20005A1C3B6B9A6401237B6301E000237B63C4
:100E3000FB6A7B617B6983F311887B6B18463837CB
:100E4000BD4680BD80B58CB000AF786039607B68EE
:100E5000BB62BB6A002B09D14FF0100383F31188EA
:100E6000BFF36F8FBFF34F8F3B62FEE7BB6A1B6C14
:100E7000002B09D04FF0100383F31188BFF36F8F5D
:100E8000BFF34F8FFB61FEE7BB6A1B68002B03D1EA
:100E9000BB6A5B68002B01D1012300E00023002B1B
:100EA00009D14FF0100383F31188BFF36F8FBFF3A5
:100EB0004F8FBB61FEE703F053FBEFF311824FF05E
:100EC000100383F31188BFF36F8FBFF34F8F7A61E5
:100ED0003B617B697B62BB6A9A6BBB6ADB6B9A4244
:100EE00024D2BB6A9B6B5A1CBB6A9A63BB6A9B6C1D
:100EF000B3F1FF3F12D1BB6A5B6A002B13D0BB6A10
:100F00002433184601F00EFD0346002B0BD03B683E
:100F1000002B08D03B6801221A6004E0BB6A9B6C7E
:100F20005A1CBB6A9A640123FB6201E00023FB6246
:100F30007B6AFB60FB6883F31188FB6A18463037D5
:100F4000BD4680BD80B58CB000AFF860B9607A60F6
:100F50003B600023FB62FB68BB62BB6A002B09D1CC
:100F60004FF0100383F31188BFF36F8FBFF34F8FE0
:100F70003B62FEE7BB68002B03D1BB6A1B6C002BF6
:100F800001D1012300E00023002B09D14FF0100311
:100F900083F31188BFF36F8FBFF34F8FFB61FEE7C1
:100FA00002F06EF80346002B02D17B68002B01D1C2
:100FB000012300E00023002B09D14FF0100383F33D
:100FC0001188BFF36F8FBFF34F8FBB61FEE703F054
:100FD000F9F9BB6A9B6B002B47D0BB6ADB687B626D
:100FE000B968B86A00F094FA3B68002B22D1BB6A5A
:100FF0009B6B5A1EBB6A9A63BB6A1B68002B04D1A9
:1010000002F012FA0246BB6A5A60BB6A1B69002BE7
:1010100027D0BB6A1033184601F084FC0346012B2D
:101020001FD1494B4FF080521A60BFF34F8FBFF36F
:101030006F8F16E0BB6A7A6ADA60BB6A5B6A002B64
:101040000FD0BB6A2433184601F06CFC0346002B1A
:1010500007D03D4B4FF080521A60BFF34F8FBFF364
:101060006F8F03F0DDF901236AE07B68002B03D169
:1010700003F0D6F9002363E0FB6A002B06D107F1E9
:101080001003184601F016FD0123FB6203F0C8F9B6
:1010900001F0B8F803F096F9BB6A5B6CB3F1FF3F5F
:1010A00002D1BB6A00225A64BB6A9B6CB3F1FF3F5A
:1010B00002D1BB6A00229A6403F0B2F93A1D07F12B
:1010C00010031146184601F019FD0346002B31D1DB
:1010D000B86A00F08FFA0346002B25D0BB6A1B6864
:1010E000002B08D103F06EF9BB6A5B68184601F06B
:1010F000E5FF03F095F9BB6A24337A681146184678
:1011000001F00EFBB86A00F029FA01F089F80346F5
:10111000002B7FF45CAF0C4B4FF080521A60BFF392
:101120004F8FBFF36F8F52E7B86A00F017FA01F0E4
:1011300077F84CE7B86A00F011FA01F071F8002373
:1011400018463037BD4680BD04ED00E080B58CB058
:1011500000AFF860B9607A60FB68BB62BB6A002BC5
:1011600009D14FF0100383F31188BFF36F8FBFF3E2
:101170004F8F3B62FEE7BB68002B03D1BB6A1B6C41
:10118000002B01D1012300E00023002B09D14FF0F7
:10119000100383F31188BFF36F8FBFF34F8FFB6191
:1011A000FEE703F0DDF9EFF311824FF0100383F354
:1011B0001188BFF36F8FBFF34F8FBA617B61BB693B
:1011C0007B62BB6A9B6B002B28D0B968B86A00F0C1
:1011D0009FF9BB6A9B6B5A1EBB6A9A63BB6A5B6CC6
:1011E000B3F1FF3F12D1BB6A1B69002B13D0BB6A5E
:1011F0001033184601F096FB0346002B0BD07B689A
:10120000002B08D07B6801221A6004E0BB6A5B6C8B
:101210005A1CBB6A5A640123FB6201E00023FB6293
:101220007B6A3B613B6983F31188FB6A1846303760
:10123000BD4680BD80B58CB000AF786039607B68FA
:10124000BB62BB6A002B09D14FF0100383F31188F6
:10125000BFF36F8FBFF34F8FFB61FEE73B68002B3F
:1012600003D1BB6A1B6C002B01D1012300E00023DA
:10127000002B09D14FF0100383F31188BFF36F8F58
:10128000BFF34F8FBB61FEE7BB6A1B6C002B09D11C
:101290004FF0100383F31188BFF36F8FBFF34F8FAD
:1012A0007B61FEE703F05CF9EFF311824FF010036E
:1012B00083F31188BFF36F8FBFF34F8F3A61FB60E9
:1012C0003B697B62BB6A9B6B002B0CD0BB6ADB6803
:1012D0003B623968B86A00F01BF9BB6A3A6ADA60A7
:1012E0000123FB6201E00023FB627B6ABB60BB68F9
:1012F00083F31188FB6A18463037BD4680BD80B540
:1013000084B000AF78607B68002B09D14FF01003E8
:1013100083F31188BFF36F8FBFF34F8FBB60FEE77E
:1013200003F050F87B689B6BFB6003F079F8FB6877
:1013300018461037BD4680BD80B586B000AF7860D6
:101340007B687B617B69002B09D14FF0100383F32D
:101350001188BFF36F8FBFF34F8FFB60FEE703F081
:1013600031F87B69DA6B7B699B6BD31A3B6103F0C5
:1013700057F83B6918461837BD4680BD80B485B024
:1013800000AF78607B68002B09D14FF0100383F326
:101390001188BFF36F8FBFF34F8FBB60FEE77B6891
:1013A0009B6BFB60FB6818461437BD465DF8047BF9
:1013B000704780B584B000AF78607B68FB60FB68E5
:1013C000002B09D14FF0100383F31188BFF36F8F07
:1013D000BFF34F8FBB60FEE7F86800F0A5F9F8682F
:1013E00003F0C2F900BF1037BD4680BD80B483B0A2
:1013F00000AF78607B68DB6C18460C37BD465DF843
:10140000047B704780B483B000AF786039607B683C
:101410003A68DA6400BF0C37BD465DF8047B70475C
:1014200080B483B000AF78607B6893F85030184682
:101430000C37BD465DF8047B704780B586B000AFC1
:10144000F860B9607A6000237B61FB681B6C002B3D
:101450000DD1FB681B68002B50D1FB685B681846F8
:1014600001F0A2FE7861FB6800225A6046E07B68CA
:10147000002B19D1FB689868FB681B6C1A46B96889
:1014800010F0C0FAFB689A68FB681B6C1A44FB6892
:101490009A60FB689A68FB685B689A422ED3FB6887
:1014A0001A68FB689A6029E0FB68D868FB681B6CC7
:1014B0001A46B96810F0A6FAFB68DA68FB681B6C7C
:1014C0005B421A44FB68DA60FB68DA68FB681B68F9
:1014D0009A4207D2FB685A68FB681B6C5B421A444D
:1014E000FB68DA607B68022B08D1FB689B6B002BE2
:1014F00004D0FB689B6B5A1EFB689A63FB689B6B6E
:101500005A1CFB689A637B6918461837BD4680BD34
:1015100080B582B000AF786039607B681B6C002BAF
:1015200018D07B68DA687B681B6C1A447B68DA60C9
:101530007B68DA687B685B689A4203D37B681A68C9
:101540007B68DA607B68D9687B681B6C1A463868F0
:1015500010F058FA00BF0837BD4680BD80B582B094
:1015600000AF786002F02EFF12E07B685B6A002B10
:1015700013D07B682433184601F0D4F90346002BBE
:1015800001D001F019FB7B689B6C5A1E7B689A6442
:101590007B689B6C002BE8DC00E000BF7B684FF0B1
:1015A000FF329A6402F03CFF02F00CFF12E07B680D
:1015B0001B69002B13D07B681033184601F0B2F979
:1015C0000346002B01D001F0F7FA7B685B6C5A1ED2
:1015D0007B685A647B685B6C002BE8DC00E000BF32
:1015E0007B684FF0FF325A6402F01AFF00BF0837E1
:1015F000BD4680BD80B584B000AF786002F0E2FEE9
:101600007B689B6B002B02D10123FB6001E0002370
:10161000FB6002F005FFFB6818461037BD4680BD31
:1016200080B485B000AF78607B68002B09D14FF0A3
:10163000100383F31188BFF36F8FBFF34F8FBB602D
:10164000FEE77B689B6B002B02D10123FB6001E06E
:101650000023FB60FB6818461437BD465DF8047B29
:10166000704780B584B000AF786002F0ABFE7B6855
:101670009A6B7B68DB6B9A4202D10123FB6001E02D
:101680000023FB6002F0CCFEFB6818461037BD4615
:1016900080BD80B485B000AF78607B68002B09D135
:1016A0004FF0100383F31188BFF36F8FBFF34F8F99
:1016B000BB60FEE77B689A6B7B68DB6B9A4202D16A
:1016C0000123FB6001E00023FB60FB681846143730
:1016D000BD465DF8047B704780B485B000AF78608C
:1016E00039600023FB6014E00E4AFB6852F8333087
:1016F000002B0BD10B49FB683A6841F83320094AAB
:10170000FB68DB0013447A685A6005E0FB6801332C
:10171000FB60FB68072BE7D900BF1437BD465DF8B7
:10172000047B70474C85002080B485B000AF7860A2
:101730000023FB6010E00D4AFB68DB0013445B688C
:101740007A689A4205D1094AFB68002142F83310B1
:1017500005E0FB680133FB60FB68072BEBD900BF9A
:101760001437BD465DF8047B704700BF4C850020F0
:1017700080B586B000AFF860B9607A60FB687B61C5
:1017800002F020FE7B695B6CB3F1FF3F02D17B6905
:1017900000225A647B699B6CB3F1FF3F02D17B69E5
:1017A00000229A6402F03CFE7B699B6B002B06D101
:1017B0007B6924337A68B968184601F065F878695E
:1017C000FFF7CCFE00BF1837BD4680BD80B58CB09A
:1017D00002AFF860B9603B601346FB80FB68002BEA
:1017E00009D14FF0100383F31188BFF36F8FBFF35C
:1017F0004F8FBB61FEE73B6B042B09D94FF0100301
:1018000083F31188BFF36F8FBFF34F8F7B61FEE7C8
:10181000FB88B96B184601F011FB38623B6A002B5C
:1018200078D03B6A1A6BFB8803F18043013B9B0035
:101830001344FB61FB6923F00703FB61FB6903F0C1
:101840000703002B09D04FF0100383F31188BFF377
:101850006F8FBFF34F8F3B61FEE7FB880093FB6BFD
:101860003A6BB968386A01F0E3F93A68F968F869DF
:1018700002F092FC02463B6A1A607B6B002B02D09E
:101880007B6B3A6A1A6002F09DFD314B1B68013395
:101890002F4A13602F4B1B68002B09D12D4A3B6A3E
:1018A00013602B4B1B68012B0FD101F015FA0CE0D4
:1018B000294B1B68002B08D1264B1B68DB6A3A6B4F
:1018C0009A4202D3234A3B6A1360244B1B680133BC
:1018D000224A1360214B1A683B6A5A643B6ADB6AEE
:1018E00001229A401E4B1B6813431D4A13603B6A3A
:1018F000DA6A13469B0013449B001A4A1A443B6A57
:10190000043319461046FEF7ECFE01237B6202F019
:1019100087FD02E04FF0FF337B627B6A012B11D120
:101920000D4B1B68002B0DD00A4B1B68DB6A3A6B12
:101930009A4207D90C4B4FF080521A60BFF34F8F79
:10194000BFF36F8F7B6A18462837BD4680BD00BF46
:10195000B00A0020D8090020BC0A0020CC0A0020D0
:10196000B80A0020DC09002004ED00E080B584B056
:1019700000AF786002F026FD7B68002B02D1344B6B
:101980001B6800E07B68FB60FB6804331846FEF7C9
:1019900005FF0346002B15D1FB68DA6A2D49134673
:1019A0009B0013449B000B441B68002B0AD1FB686F
:1019B000DB6A012202FA03F3DA43274B1B68134068
:1019C000254A1360FB689B6A002B04D0FB68183320
:1019D0001846FEF7E3FEFB68043319461F48FEF77E
:1019E00080FE1F4B1B6801331D4A13601D4B1B6893
:1019F00001331C4A136002F013FD1B4B1B68002BC4
:101A000021D0134B1B68FA689A4216D1174B1B68FA
:101A1000002B09D04FF0100383F31188BFF36F8FB1
:101A2000BFF34F8FBB60FEE7114B4FF080521A603F
:101A3000BFF34F8FBFF36F8F05E002F0C3FC01F0DF
:101A4000EAFA02F0EDFC00BF1037BD4680BD00BFD2
:101A5000D8090020DC090020B80A0020840A0020F0
:101A6000980A0020CC0A0020BC0A0020D40A0020DA
:101A700004ED00E080B58AB000AF786039600023E3
:101A80007B627B68002B09D14FF0100383F3118830
:101A9000BFF36F8FBFF34F8F7B61FEE73B68002B77
:101AA00009D14FF0100383F31188BFF36F8FBFF399
:101AB0004F8F3B61FEE7324B1B68002B09D04FF084
:101AC000100383F31188BFF36F8FBFF34F8FFB6059
:101AD000FEE700F097FB2B4B1B683B627B681B68A3
:101AE0003A681344FB617B681B683A6A9A420BD2DE
:101AF0007B681B68FA699A4211D2FA693B6A9A427A
:101B00000DD901237B620AE07B681B68FA699A425F
:101B100003D3FA693B6A9A4201D901237B627B684D
:101B2000FA691A607B6A002B17D0174B1B680433C5
:101B30001846FEF733FE0346002B0BD1124B1B68F1
:101B4000DB6A012202FA03F3DA43104B1B681340ED
:101B50000E4A1360F86901F03BF900F061FBB861CF
:101B6000BB69002B07D10A4B4FF080521A60BFF3BC
:101B70004F8FBFF36F8F00BF2837BD4680BD00BFBA
:101B8000D40A0020B40A0020D8090020B80A002096
:101B900004ED00E080B586B000AF786000237B6183
:101BA0007B68002B2FD01F4B1B68002B09D04FF0F8
:101BB000100383F31188BFF36F8FBFF34F8FFB6068
:101BC000FEE700F01FFB184B1B687A6813443B616B
:101BD000164B1B6804331846FEF7E0FD0346002B46
:101BE0000BD1124B1B68DB6A012202FA03F3DA43C2
:101BF0000F4B1B6813400E4A1360386901F0E8F878
:101C000000F00EFB78617B69002B07D1094B4FF088
:101C100080521A60BFF34F8FBFF36F8F00BF18372A
:101C2000BD4680BDD40A0020B40A0020D809002097
:101C3000B80A002004ED00E080B584B000AF786001
:101C400002F0C0FB7B68002B02D1074B1B6800E051
:101C50007B68FB60FB68DB6ABB6002F0E1FBBB6892
:101C600018461037BD4680BDD809002080B588B021
:101C700000AF786002F074FCEFF311824FF01003B4
:101C800083F31188BFF36F8FBFF34F8F3A61FB600F
:101C90003B69FB617B68002B02D1094B1B6800E0AC
:101CA0007B68BB61BB69DB6A7B61FB69BB60BB684E
:101CB00083F311887B6918462037BD4680BD00BF7D
:101CC000D809002080B588B000AF78603960002363
:101CD000FB613B68042B09D94FF0100383F3118893
:101CE000BFF36F8FBFF34F8FFB60FEE73B68042BA2
:101CF00001D904233B6002F065FB7B68002B02D115
:101D0000434B1B6800E07B68BB61BB69DB6C7B619C
:101D10007A693B689A4274D03A687B699A420DD9D5
:101D20003B4B1B68BA699A420FD0394B1B68DB6A80
:101D30003A689A4209D30123FB6106E0344B1B68E1
:101D4000BA699A4201D10123FB61BB69DB6A3B613D
:101D5000BB69DA6CBB69DB6A9A4202D1BB693A683B
:101D6000DA62BB693A68DA64BB699B69002B04DB01
:101D70003B68C3F10502BB699A61BB6959693A695D
:101D800013469B0013449B00224A1344994201D1FD
:101D9000012300E00023002B28D0BB690433184640
:101DA000FEF7FCFC0346002B09D101223B6902FA35
:101DB00003F3DA43184B1B681340174A1360BB69DF
:101DC000DB6A01229A40144B1B681343124A1360CA
:101DD000BB69DA6A13469B0013449B000D4A1A4400
:101DE000BB69043319461046FEF77BFCFB69012BE7
:101DF00007D10A4B4FF080521A60BFF34F8FBFF3E9
:101E00006F8F02F00DFB00BF2037BD4680BD00BFC5
:101E1000D8090020DC090020B80A002004ED00E009
:101E200080B584B000AF786002F0CCFA7B68002BFC
:101E300002D1374B1B6800E07B68FB60FB68043312
:101E40001846FEF7ABFC0346002B15D1FB68DA6A97
:101E5000304913469B0013449B000B441B68002B26
:101E60000AD1FB68DB6A012202FA03F3DA432A4B48
:101E70001B681340284A1360FB689B6A002B04D040
:101E8000FB6818331846FEF789FCFB6804331946D3
:101E90002248FEF726FC02F0C3FA1D4B1B68FA68C5
:101EA0009A4227D11E4B1B68002B16D01D4B1B6876
:101EB000002B09D04FF0100383F31188BFF36F8F0D
:101EC000BFF34F8FBB60FEE7174B4FF080521A6095
:101ED000BFF34F8FBFF36F8F16E0104B1A68134B91
:101EE0001B689A4203D10A4B00221A600CE000F0F2
:101EF000BDFB09E00A4B1B68002B05D002F062FA1B
:101F000001F089F802F08CFA00BF1037BD4680BDA1
:101F1000D8090020DC090020B80A00209C0A002013
:101F2000BC0A0020D40A002004ED00E0B00A002022
:101F300080B487B000AF786000237B617B683B6131
:101F40007B68002B09D14FF0100383F31188BFF396
:101F50006F8FBFF34F8FFB60FEE73B695B690F4AF2
:101F6000934201D1012300E00023002B0FD03B69F5
:101F70009B6A0B4A93420AD03B699B6A002B01D1B2
:101F8000012300E00023002B01D001237B617B694A
:101F900018461C37BD465DF8047B70479C0A00203C
:101FA000700A002080B584B000AF78607B68FB6069
:101FB0007B68002B09D14FF0100383F31188BFF326
:101FC0006F8FBFF34F8FBB60FEE7FB68002B39D0EC
:101FD0001E4B1B68FA689A4234D002F0F3F9F86895
:101FE000FFF7A6FF0346012B2AD1FB6804331846EE
:101FF000FEF7D4FBFB68DB6A01229A40144B1B6896
:102000001343134A1360FB68DA6A13469B001344B8
:102010009B00104A1A44FB68043319461046FEF729
:1020200060FBFB68DA6A094B1B68DB6A9A4207D3DC
:10203000094B4FF080521A60BFF34F8FBFF36F8F81
:1020400002F0EEF900BF1037BD4680BDD809002070
:10205000B80A0020DC09002004ED00E080B58AB059
:1020600000AF786000237B627B683B627B68002B5B
:1020700009D14FF0100383F31188BFF36F8FBFF3C3
:102080004F8FBB61FEE702F06BFAEFF311824FF066
:10209000100383F31188BFF36F8FBFF34F8F7A6103
:1020A0003B617B69FB61386AFFF742FF0346012B06
:1020B0002FD11D4B1B68002B25D13B6ADA6A1B4BC5
:1020C0001B68DB6A9A4201D301237B623B6A0433BB
:1020D0001846FEF763FB3B6ADB6A01229A40144B09
:1020E0001B681343124A13603B6ADA6A13469B006B
:1020F00013449B000F4A1A443B6A043319461046A6
:10210000FEF7EFFA05E03B6A183319460A48FEF776
:10211000E8FAFB69FB60FB6883F311887B6A184669
:102120002837BD4680BD00BFD40A0020D809002052
:10213000B80A0020DC090020700A002080B588B0B1
:1021400004AF002303930023029300230193002391
:102150000093002380221A491A48FFF737FBF860E2
:10216000FB68012B02D101F07FFCF860FB68012BBA
:1021700015D14FF0100383F31188BFF36F8FBFF3B6
:102180004F8FBB60104B4FF0FF321A600F4B012294
:102190001A600F4B00221A6002F06DF80CE0FB6829
:1021A000002B09D14FF0100383F31188BFF36F8F19
:1021B000BFF34F8F7B60FEE700BF1037BD4680BD89
:1021C000486D0108232C0008D00A0020BC0A00201A
:1021D000B40A002080B582B000AF4FF0100383F343
:1021E0001188BFF36F8FBFF34F8F7B60044B0022CA
:1021F0001A6002F0CDF800BF0837BD4680BD00BFB1
:10220000BC0A002080B400AF044B1B680133034AB2
:10221000136000BFBD465DF8047B7047D40A002000
:1022200080B584B000AF0023FB603E4B1B68002BE1
:1022300009D14FF0100383F31188BFF36F8FBFF301
:102240004F8F7B60FEE702F0BDF8364B1B68013B09
:10225000344A1360334B1B68002B5BD1324B1B6835
:10226000002B57D02EE0314BDB68DB68BB60BB68CE
:1022700018331846FEF792FABB6804331846FEF787
:102280008DFABB68DB6A01229A40294B1B68134315
:10229000274A1360BB68DA6A13469B0013449B000D
:1022A000244A1A44BB68043319461046FEF719FA4B
:1022B000BB68DA6A204B1B68DB6A9A4202D31F4B69
:1022C00001221A60194B1B68002BCCD11C4B1B68D8
:1022D000002B11D00CE000F003F90346002B02D0D4
:1022E000164B01221A60164B1B68013B144A1360FF
:1022F000134B1B68002BEED1104B1B68012B09D12F
:102300000123FB600F4B4FF080521A60BFF34F8FD9
:10231000BFF36F8F02F084F8FB6818461037BD4694
:1023200080BD00BFD40A0020B00A0020700A00203F
:10233000B80A0020DC090020D8090020C40A0020C7
:10234000C00A002004ED00E080B483B000AF054B6C
:102350001B687B607B6818460C37BD465DF8047BC4
:10236000704700BFB40A002080B582B000AF02F011
:10237000F7F800237B60044B1B683B603B68184602
:102380000837BD4680BD00BFB40A002080B400AF4E
:10239000034B1B681846BD465DF8047B704700BFC1
:1023A000B00A002080B485B000AF78607B68002B55
:1023B00002D10D4B1B6800E07B68FB60FB68002BC3
:1023C00009D14FF0100383F31188BFF36F8FBFF370
:1023D0004F8FBB60FEE7FB68343318461437BD46A9
:1023E0005DF8047B704700BFD809002080B586B037
:1023F00000AFF860B9607A6000237B6105233B6120
:10240000FFF700FF304B1B68BA689A4254D33B6910
:10241000013B3B617B695B01FA68D0183A6913465E
:102420009B0013449B00294A13440122194600F0E3
:102430003BFD02467B6913447B613B69002BE6D17F
:102440007B695B01FA68D018214B1B680222194690
:1024500000F02AFD02467B6913447B617B695B01C6
:10246000FA68D0181B4B1B680222194600F01CFDAD
:1024700002467B6913447B617B695B01FA68134404
:1024800004221549184600F00FFD02467B691344EB
:102490007B617B695B01FA68134403220F4918468C
:1024A00000F002FD02467B6913447B617B68002BD0
:1024B00002D07B6800221A60FFF7B2FE7B691846E3
:1024C0001837BD4680BD00BFB00A0020DC090020DF
:1024D000680A00206C0A0020840A00209C0A002060
:1024E00080B586B000AF00237B61554B1B68002B85
:1024F00040F09380534B1B680133524A1360514B99
:102500001B683B613B69002B1FD14F4B1B681B684D
:10251000002B09D04FF0100383F31188BFF36F8FA6
:10252000BFF34F8F3B60FEE7474B1B68FB60474B99
:102530001B68454A1360454AFB681360444B1B689F
:102540000133434A136000F066FD424B1B683A6951
:102550009A424DD33C4B1B681B68002B01D10123D1
:1025600000E00023002B04D03A4B4FF0FF321A60FA
:102570003EE0354B1B68DB68DB68BB60BB685B68B3
:102580007B603A697B689A4203D2324A7B68136067
:102590002EE0BB6804331846FEF700F9BB689B6A5F
:1025A000002B04D0BB6818331846FEF7F7F8BB6859
:1025B000DB6A01229A40284B1B681343264A1360AA
:1025C000BB68DA6A13469B0013449B00234A1A44F3
:1025D000BB68043319461046FEF783F8BB68DA6A15
:1025E0001F4B1B68DB6A9A42B4D301237B61B1E7BE
:1025F0001B4B1B68DA6A194913469B0013449B0066
:102600000B441B68012B01D901237B61154B1B680F
:10261000002B09D1FDF710FF06E0124B1B680133B8
:10262000104A1360FDF708FF0F4B1B68002B01D009
:1026300001237B617B6918461837BD4680BD00BF0A
:10264000D40A0020B40A0020680A00206C0A002086
:10265000C80A0020D00A0020B80A0020DC090020A7
:10266000D8090020C00A0020C40A002080B487B026
:1026700000AF264B1B68002B03D0254B01221A60AC
:102680003EE0234B00221A60224B1B68FB60FB6874
:10269000B3FA83F3FB72FB7AC3F11F037B611E491C
:1026A0007A6913469B0013449B000B441B68002B64
:1026B00009D14FF0100383F31188BFF36F8FBFF37D
:1026C0004F8F7B60FEE77A6913469B0013449B00A3
:1026D000114A13443B613B695B685A683B695A6025
:1026E0003B695A683B6908339A4204D13B695B688D
:1026F0005A683B695A603B695B68DB68074A13604C
:1027000000BF1C37BD465DF8047B7047D40A00202B
:10271000C40A0020B80A0020DC090020D8090020E3
:1027200080B584B000AF786039607B68002B09D138
:102730004FF0100383F31188BFF36F8FBFF34F8FF8
:10274000BB60FEE7194B1B68183319467868FDF724
:10275000ECFF164B1B6804331846FEF71FF80346C0
:10276000002B0BD1114B1B68DB6A012202FA03F329
:10277000DA430F4B1B6813400D4A13603B68B3F1FB
:10278000FF3F07D1094B1B68043319460948FDF781
:10279000A8FF07E0084B1B683A681344FB60F86821
:1027A00000F016FB00BF1037BD4680BDD8090020E1
:1027B000B80A00209C0A0020B40A002080B588B026
:1027C00000AFF860B9607A60FB68002B09D14FF068
:1027D000100383F31188BFF36F8FBFF34F8FBB617B
:1027E000FEE7244B1B68002B09D14FF0100383F345
:1027F0001188BFF36F8FBFF34F8F7B61FEE71E4BD6
:102800001B68BA6842F000429A611B4B1B68183380
:102810001946F868FDF765FF174B1B680433184627
:10282000FDF7BCFF0346002B0BD1134B1B68DB6A83
:10283000012202FA03F3DA43104B1B6813400F4ADC
:1028400013607B68B3F1FF3F07D10B4B1B68043368
:1028500019460B48FDF745FF07E00A4B1B687A68ED
:102860001344FB61F86900F0B3FA00BF2037BD469E
:1028700080BD00BFD40A0020D8090020B80A00207B
:102880009C0A0020B40A002080B586B000AFF86032
:10289000B9607A60FB68002B09D14FF0100383F315
:1028A0001188BFF36F8FBFF34F8F3B61FEE7194B6A
:1028B0001B6818331946F868FDF713FF154B1B68A2
:1028C00004331846FDF76AFF0346002B0BD1114B6A
:1028D0001B68DB6A012202FA03F3DA430E4B1B6822
:1028E00013400D4A13607B68012B07D1094B1B680D
:1028F000043319460948FDF7F4FE07E0084B1B684E
:10290000BA6813447B61786900F062FA00BF183737
:10291000BD4680BDD8090020B80A00209C0A0020CE
:10292000B40A002080B586B000AF78607B68DB68B1
:10293000DB683B613B69002B09D14FF0100383F347
:102940001188BFF36F8FBFF34F8FFB60FEE73B69CA
:1029500018331846FDF722FF1D4B1B68002B1CD1B6
:102960003B6904331846FDF719FF3B69DB6A012216
:102970009A40184B1B681343164A13603B69DA6A86
:1029800013469B0013449B00134A1A443B690433CB
:1029900019461046FDF7A5FE05E03B6918331946B8
:1029A0000E48FDF79EFE3B69DA6A0D4B1B68DB6A39
:1029B0009A4205D901237B610A4B01221A6001E08A
:1029C00000237B617B6918461837BD4680BD00BF78
:1029D000D40A0020B80A0020DC090020700A002078
:1029E000D8090020C40A002080B586B000AF786006
:1029F00039602B4B1B68002B09D14FF0100383F378
:102A00001188BFF36F8FBFF34F8FFB60FEE73B680A
:102A100043F000427B681A607B68DB683B613B697E
:102A2000002B09D14FF0100383F31188BFF36F8F90
:102A3000BFF34F8FBB60FEE77868FDF7AFFE3B69E1
:102A400004331846FDF7AAFE3B69DB6A01229A406F
:102A5000144B1B681343134A13603B69DA6A13462D
:102A60009B0013449B00104A1A443B6904331946E7
:102A70001046FDF736FE3B69DA6A0C4B1B68DB6AD1
:102A80009A4205D901237B61094B01221A6001E0BA
:102A900000237B617B6918461837BD4680BD00BFA7
:102AA000D40A0020B80A0020DC090020D809002040
:102AB000C40A002080B485B000AF78607B68002B2A
:102AC00009D14FF0100383F31188BFF36F8FBFF369
:102AD0004F8FFB60FEE7074B1A687B681A60064B56
:102AE0001A687B685A6000BF1437BD465DF8047BE6
:102AF000704700BFC80A0020B40A002080B586B025
:102B000000AF786039607B68002B09D14FF010036B
:102B100083F31188BFF36F8FBFF34F8FFB60FEE726
:102B20003B68002B09D14FF0100383F31188BFF3EA
:102B30006F8FBFF34F8FBB60FEE701F043FC1C4B70
:102B40001B683B613B681B68B3F1FF3F02D1002368
:102B50007B6126E07B681A68164B1B689A4207D097
:102B60007B685B683A699A4202D301237B6118E073
:102B70007B685B683A69D21A3B681B689A420ED23E
:102B80003B681A687B6859683B69CB1A1A443B68F2
:102B90001A607868FFF78EFF00237B6101E0012354
:102BA0007B6101F03DFC7B6918461837BD4680BD4E
:102BB000B40A0020C80A002080B400AF034B0122F1
:102BC0001A6000BFBD465DF8047B7047C40A002050
:102BD00080B485B000AF78607B68002B05D07B683F
:102BE000BB60BB689B6CFB6001E00023FB60FB6883
:102BF00018461437BD465DF8047B704780B485B035
:102C000000AF786039607B68002B04D07B68FB6084
:102C1000FB683A689A6400BF1437BD465DF8047BD0
:102C2000704780B582B000AF786000F095F8FCE79F
:102C300080B586B000AFF860B9607A603B60002371
:102C40007B6112E0BA687B6913441978FA687B6982
:102C5000134434330A461A70BA687B6913441B78EC
:102C6000002B06D07B6901337B617B690F2BE9D98F
:102C700000E000BFFB68002283F843207B68042B40
:102C800001D904237B60FB687A68DA62FB687A68A2
:102C9000DA64FB6800221A65FB6804331846FDF706
:102CA00013FDFB6818331846FDF70EFDFB68FA6844
:102CB0001A617B68C3F10502FB689A61FB68FA68D8
:102CC0005A62FB6800225A65FB68002283F858208C
:102CD00000BF1837BD4680BD80B582B000AF00236D
:102CE0007B600CE07A6813469B0013449B00124AF9
:102CF00013441846FDF7C8FC7B6801337B607B6892
:102D0000042BEFD90D48FDF7BFFC0D48FDF7BCFCC7
:102D10000C48FDF7B9FC0C48FDF7B6FC0B48FDF775
:102D2000B3FC0B4B054A1A600A4B054A1A6000BFF8
:102D30000837BD4680BD00BFDC090020400A0020E6
:102D4000540A0020700A0020840A00209C0A0020F7
:102D5000680A00206C0A002080B582B000AF28E02D
:102D6000FFF750FA174B1B68002B0CBF0123002301
:102D7000DBB27B60FFF754FA7B68002B19D101F0BE
:102D800021FB104BDB68DB683B603B680433184673
:102D9000FDF704FD0C4B1B68013B0B4A13600B4B0A
:102DA0001B68013B094A136001F03AFB386800F0E8
:102DB00022F9064B1B68002BD2D100BF0837BD4655
:102DC00080BD00BF840A0020B00A0020980A0020BD
:102DD00080B582B000AF7860134B1B687A685A6088
:102DE000124B1B687A689A4209D2114B1A680E4B33
:102DF0001B68043319461046FDF797FC10E00D4B95
:102E00001A68094B1B68043319461046FDF78DFC00
:102E1000094B1B687A689A4202D2074A7B681360A2
:102E200000BF0837BD4680BDD8090020B40A002085
:102E30006C0A0020680A0020D00A002080B584B007
:102E400000AF03463960FB803B68002B06D1FB884E
:102E50009B00184601F0C6FB034600E03B68BB60E0
:102E6000BB68002B0ED05C2001F0BCFBF860FB6857
:102E7000002B03D0FB68BA681A6305E0B86801F05C
:102E800073FC01E00023FB60FB68002B07D0FB68AC
:102E9000186BFB889B001A46A5210FF051FDFB68BB
:102EA00018461037BD4680BD90B58BB000AFF860B6
:102EB000B9601346FB7100237B62BB681B68002B63
:102EC00078D0BB683B623B6A5B685A683B6A5A6071
:102ED0003B6A5A683B6A08339A4204D13B6A5B6892
:102EE0005A683B6A5A603B6A5B68DB68FB61BB6897
:102EF000BB61BB695B685A68BB695A60BB695A6849
:102F0000BB6908339A4204D1BB695B685A68BB69E4
:102F10005A60BB695B68DB687B617B6A5B01FA684E
:102F200013447A691A607B6A5B01FA6813447A6910
:102F300034325A607B6A5B01FA6813447A69526CD6
:102F40009A607B6A5B01FA681344FA791A737B6AA8
:102F50005B01FA6813447A69D26A1A61FB79032B20
:102F600009D17B699B6A002B05D07B6A5B01FA68FB
:102F7000134402221A737B6A5B01FA6813447A696C
:102F8000D26C5A617B6A5B01FA68134400229A6131
:102F90007B69196B7B6A5B01FA68D418084600F0FC
:102FA0000EF80346A3837B6A01337B627A69FB696F
:102FB0009A429CD17B6A18462C37BD4690BD80B49E
:102FC00085B000AF78600023FB6005E07B680133CB
:102FD0007B60FB680133FB607B681B78A52BF5D019
:102FE000FB689B08FB60FB689BB218461437BD4624
:102FF0005DF8047B704780B582B000AF78607B6875
:103000001B6B184601F0B0FB786801F0ADFB00BF08
:103010000837BD4680BD80B483B000AF0E4B1B683F
:103020001B68002B01D1012300E00023002B04D0FA
:103030000A4B4FF0FF321A6008E0074B1B68DB6851
:10304000DB687B607B685B68044A136000BF0C37F9
:10305000BD465DF8047B7047680A0020D00A002056
:1030600080B483B000AF054B1B687B607B6818465B
:103070000C37BD465DF8047B704700BFD8090020BF
:1030800080B483B000AF0B4B1B68002B02D101232F
:103090007B6008E0084B1B68002B02D102237B6099
:1030A00001E000237B607B6818460C37BD465DF865
:1030B000047B7047BC0A0020D40A002080B584B08D
:1030C00000AF78607B68FB607B68002B62D0FB6898
:1030D000DA6A324B1B68DB6A9A425BD2FB689B69F7
:1030E000002B06DB2D4B1B68DB6AC3F10502FB6876
:1030F0009A61FB685969FB68DA6A13469B001344BE
:103100009B00274A1344994201D1012300E0002388
:10311000002B3AD0FB6804331846FDF73FFB03460B
:10312000002B15D1FB68DA6A1D4913469B00134436
:103130009B000B441B68002B0AD1FB68DB6A012251
:1031400002FA03F3DA43174B1B681340154A136066
:10315000124B1B68DA6AFB68DA62FB68DB6A0122E1
:103160009A40104B1B6813430E4A1360FB68DA6ADF
:1031700013469B0013449B00094A1A44FB6804331E
:1031800019461046FDF7ADFA04E0044B1B68DA6AF5
:10319000FB68DA6200BF1037BD4680BDD809002049
:1031A000DC090020B80A002080B586B000AF786046
:1031B0007B683B6100237B617B68002B6CD0394BC3
:1031C0001B683A699A4209D04FF0100383F31188C3
:1031D000BFF36F8FBFF34F8FFB60FEE73B691B6D43
:1031E000002B09D14FF0100383F31188BFF36F8FC9
:1031F000BFF34F8FBB60FEE73B691B6D5A1E3B69F7
:103200001A653B69DA6A3B69DB6C9A4244D03B69D8
:103210001B6D002B40D13B6904331846FDF7BEFA05
:103220000346002B15D13B69DA6A1F4913469B0000
:1032300013449B000B441B68002B0AD13B69DB6ADB
:10324000012202FA03F3DA43184B1B681340174AB2
:1032500013603B69DA6C3B69DA623B69DB6AC3F194
:1032600005023B699A613B69DB6A01229A400F4B78
:103270001B6813430D4A13603B69DA6A13469B00CF
:1032800013449B00084A1A443B690433194610460C
:10329000FDF727FA01237B617B6918461837BD4685
:1032A00080BD00BFD8090020DC090020B80A00203A
:1032B00080B584B000AF78603960396878680FF005
:1032C00009FC78680EF03CFCF86007E07A68FB685F
:1032D000134420221A70FB680133FB60FB680E2B3D
:1032E000F4D97A68FB68134400221A707A68FB6884
:1032F000134418461037BD4680BD90B589B002AF63
:1033000078607B6800221A70394B1B68FB60384B71
:103310001B685B01184601F065F938613B69002BB9
:1033200061D0FB68002219463869FFF75FF8034651
:10333000FB600023BB604FE0BB685B013A6913444C
:103340001B7B013B032B17D801A252F823F000BFCF
:1033500061330008673300086D33000873330008D9
:103360005223FB750BE04223FB7508E05323FB75EA
:1033700005E04423FB7502E00023FB7500BFBB683A
:103380005B013A6913445B6819467868FFF790FF60
:103390007860F97DBB685B013A6913441869BB68C2
:1033A0005B013A6913449B8B1C46BB685B013A691D
:1033B00013449B680193009403460A460D497868BC
:1033C0000FF062FB78680EF0BBFB02467B6813448B
:1033D0007B60BB680133BB60BA68FB689A42ABD3C1
:1033E000386901F0C1F900BF1C37BD4690BD00BF70
:1033F000B00A0020506D010880B483B000AF094BC3
:103400001B689B697B60074B1B68DA6A054B1B686E
:10341000C2F105029A617B6818460C37BD465DF81B
:10342000047B7047D809002080B400AF074B1B68AD
:10343000002B04D0054B1B681A6D01321A65034B33
:103440001B681846BD465DF8047B7047D80900200C
:1034500080B584B000AF7860396000F0B3FF314BC5
:103460001B685B6D002B38D12E4B1B68012283F843
:1034700058203B68002B30D02A4B1B680433184679
:10348000FDF78CF90346002B0BD1264B1B68DB6A3A
:10349000012202FA03F3DA43234B1B681340224A4A
:1034A00013603B68B3F1FF3F07D11E4B1B68043329
:1034B00019461E48FDF715F907E01D4B1B683A68D1
:1034C0001344FB60F868FFF783FC1A4B4FF08052FF
:1034D0001A60BFF34F8FBFF36F8F00F0A1FF00F0B2
:1034E00071FF104B1B685B6DBB60BB68002B0CD081
:1034F0007B68002B04D00B4B1B6800225A6504E04C
:10350000084B1B685A6D013A5A65064B1B6800222E
:1035100083F8582000F084FFBB6818461037BD467A
:1035200080BD00BFD8090020B80A00209C0A0020F6
:10353000B40A002004ED00E080B586B000AFF8606A
:10354000B9607A603B6000F03DFF394B1B6893F82F
:103550005830DBB2022B3FD0354B1B68596DFA68EF
:10356000D2430A405A65324B1B68012283F8582027
:103570003B68002B30D02E4B1B6804331846FDF7F8
:103580000DF90346002B0BD1294B1B68DB6A012286
:1035900002FA03F3DA43274B1B681340254A1360F2
:1035A0003B68B3F1FF3F07D1214B1B680433194639
:1035B0002148FDF796F807E0204B1B683A68134452
:1035C0003B613869FFF704FC1D4B4FF080521A60D5
:1035D000BFF34F8FBFF36F8F00F022FF00F0F2FEBA
:1035E0007B68002B04D0124B1B685A6D7B681A60F5
:1035F0000F4B1B6893F85830DBB2012B02D100232C
:103600007B6108E00A4B1B68596DBA68D2430A40D7
:103610005A6501237B61064B1B68002283F8582002
:1036200000F0FEFE7B6918461837BD4680BD00BF1E
:10363000D8090020B80A00209C0A0020B40A002003
:1036400004ED00E080B58AB000AFF860B9603B607F
:103650001346FB7101237B62FB68002B09D14FF0FD
:10366000100383F31188BFF36F8FBFF34F8FBB61DC
:10367000FEE7FB683B6200F0A5FE3B68002B03D031
:103680003B6A5A6D3B681A603B6A93F85830FB7787
:103690003B6A022283F85820FB79042B27D801A229
:1036A00052F823F0EF360008B9360008C736000894
:1036B000D3360008DB3600083B6A5A6DBB681A43F4
:1036C0003B6A5A6513E03B6A5B6D5A1C3B6A5A655C
:1036D0000DE03B6ABA685A6509E0FB7F022B03D014
:1036E0003B6ABA685A6501E000237B6200BFFB7F3A
:1036F000012B38D13B6A04331846FDF74FF83B6A7B
:10370000DB6A01229A401B4B1B681343194A136062
:103710003B6ADA6A13469B0013449B00164A1A441C
:103720003B6A043319461046FCF7DBFF3B6A9B6A91
:10373000002B09D04FF0100383F31188BFF36F8F74
:10374000BFF34F8F7B61FEE73B6ADA6A0B4B1B6866
:10375000DB6A9A4207D90A4B4FF080521A60BFF3D6
:103760004F8FBFF36F8F00F05BFE7B6A18462837E0
:10377000BD4680BDB80A0020DC090020D809002021
:1037800004ED00E080B58EB000AFF860B9603B603A
:103790001346FB7101237B63FB68002B09D14FF0BB
:1037A000100383F31188BFF36F8FBFF34F8F7B62DA
:1037B000FEE700F0D5FEFB683B63EFF311824FF0AC
:1037C000100383F31188BFF36F8FBFF34F8F3A62FB
:1037D000FB613B6AFB623B68002B03D03B6B5A6D7D
:1037E0003B681A603B6B93F8583087F82B303B6B83
:1037F000022283F85820FB79042B29D801A252F821
:1038000023F000BF51380008193800082738000895
:10381000333800083B3800083B6B5A6DBB681A43CD
:103820003B6B5A6514E03B6B5B6D5A1C3B6B5A65F6
:103830000EE03B6BBA685A650AE097F82B30022B12
:1038400003D03B6BBA685A6501E000237B6300BF7D
:1038500097F82B30012B41D13B6B9B6A002B09D091
:103860004FF0100383F31188BFF36F8FBFF34F8FB7
:10387000BB61FEE71E4B1B68002B1CD13B6B043366
:103880001846FCF78BFF3B6BDB6A01229A40194B11
:103890001B681343174A13603B6BDA6A13469B009D
:1038A00013449B00144A1A443B6B043319461046D8
:1038B000FCF717FF05E03B6B183319460F48FCF780
:1038C00010FF3B6BDA6A0E4B1B68DB6A9A4205D924
:1038D0003B6C002B02D03B6C01221A60FB6A7B61BF
:1038E0007B6983F311887B6B18463837BD4680BDF2
:1038F000D40A0020B80A0020DC090020700A002049
:10390000D809002080B58AB000AF786039607B6844
:10391000002B09D14FF0100383F31188BFF36F8F91
:10392000BFF34F8FBB61FEE700F01AFE7B687B623E
:10393000EFF311824FF0100383F31188BFF36F8F01
:10394000BFF34F8F7A613B617B693B627B6A93F87F
:103950005830FB777B6A022283F858207B6A5B6DC4
:103960005A1C7B6A5A65FB7F012B41D17B6A9B6A9B
:10397000002B09D04FF0100383F31188BFF36F8F32
:10398000BFF34F8FFB60FEE71E4B1B68002B1CD163
:103990007B6A04331846FCF701FF7B6ADB6A01226D
:1039A0009A40194B1B681343174A13607B6ADA6A03
:1039B00013469B0013449B00144A1A447B6A043349
:1039C00019461046FCF78DFE05E07B6A1833194650
:1039D0000F48FCF786FE7B6ADA6A0E4B1B68DB6ACF
:1039E0009A4205D93B68002B02D03B6801221A603D
:1039F0003B6ABB60BB6883F3118800BF2837BD46B4
:103A000080BD00BFD40A0020B80A0020DC090020D5
:103A1000700A0020D809002080B584B000AF78601B
:103A20007B68BB60BB68002B02D10E4B1B6800E0BB
:103A3000BB68BB6000F0C6FCBB6893F85830DBB2D3
:103A4000022B06D1BB68002283F858200123FB60BB
:103A500001E00023FB6000F0E3FCFB681846103730
:103A6000BD4680BDD809002080B586B004AF0023D4
:103A70007B6000F0E7FA134B1B68002B0FD000238C
:103A80000393002302930023019302230093002356
:103A90004FF480720C490D48FDF798FE78607B6802
:103AA000002B09D14FF0100383F31188BFF36F8F00
:103AB000BFF34F8F3B60FEE77B6818460837BD4673
:103AC00080BD00BF080B0020606D0108953C000818
:103AD00080B586B000AFF860B9607A603B60BB68C3
:103AE000002B02D100237B611CE02C2000F07AFD2A
:103AF00078617B69002B15D000F0A4FA7B69FA6825
:103B00001A607B69BA689A617B697A68DA617B6955
:103B10003A681A627B693A6A5A627B6904331846CA
:103B2000FCF7D2FDBB68002B09D14FF0100383F3E3
:103B30001188BFF36F8FBFF34F8F3B61FEE77B6947
:103B400018461837BD4680BD80B58AB000AFF86012
:103B5000B9607A603B6000237B62FB68002B09D16F
:103B60004FF0100383F31188BFF36F8FBFF34F8FB4
:103B70003B62FEE7194B1B68002B2AD0BB687B61B8
:103B80007B68BB61FB68FB61BB68052B18DCFFF73A
:103B900077FA0346022B09D1104B186807F114017C
:103BA00000233A6BFCF7CFFF786212E00B4B1868EA
:103BB00007F1140100230022FCF7C5FF786208E03A
:103BC000064B186807F1140100233A68FDF7AEF8B8
:103BD00078627B6A18462837BD4680BD080B0020F6
:103BE00080B485B000AF78607B68FB607B68002B99
:103BF00009D14FF0100383F31188BFF36F8FBFF328
:103C00004F8FBB60FEE7FB681B6818461437BD4644
:103C10005DF8047B704780B588B002AF786039608A
:103C20001B4B1B68DB68DB687B617B6904331846D0
:103C3000FCF7B4FD7B69DB69012B21D17B699A69B3
:103C40007B68D1187B683A68786900F0C7F803464A
:103C5000012B15D10023009300237A680021786995
:103C6000FFF772FF38613B69002B09D14FF0100359
:103C700083F31188BFF36F8FBFF34F8FFB60FEE7B5
:103C80007B695B6A7869984700BF1837BD4680BD7D
:103C9000000B002080B584B000AF786007F1080306
:103CA000184600F057F8F860BB681946F86800F04D
:103CB00003F800F0D5F8F1E780B584B000AF786084
:103CC0003960FEF79FFA07F10803184600F066F81E
:103CD000F860BB68002B30D13B68002B0AD17A68B2
:103CE000FB689A4206D8FEF79BFAF9687868FFF7F6
:103CF00092FF24E03B68002B08D0134B1B681B6825
:103D0000002B0CBF01230023DBB23B600F4B186874
:103D10007A68FB68D31A3A681946FDF729FDFEF761
:103D20007FFA0346002B0AD1094B4FF080521A60EC
:103D3000BFF34F8FBFF36F8F01E0FEF771FA00BF43
:103D40001037BD4680BD00BF040B0020080B0020CB
:103D500004ED00E080B485B000AF78600E4B1B68C6
:103D60001B68002B0CBF01230023DBB21A467B68C3
:103D70001A607B681B68002B05D1074B1B68DB684A
:103D80001B68FB6001E00023FB60FB6818461437EA
:103D9000BD465DF8047B7047000B002080B584B001
:103DA00000AF7860FEF7D0FAF8600B4B1B68FA683A
:103DB0009A4205D200F0E6F87B6801221A6002E020
:103DC0007B6800221A60044AFB681360FB6818468F
:103DD0001037BD4680BD00BF0C0B002080B586B0FB
:103DE00000AFF860B9607A603B6000237B61FB68DC
:103DF000BA685A60FB68FA681A61BA687B689A42C6
:103E000012D87A683B68D21AFB689B699A4202D33F
:103E100001237B611BE0104B1A68FB6804331946D1
:103E20001046FCF782FC12E07A683B689A4206D2A0
:103E3000BA683B689A4202D301237B6107E0074BD3
:103E40001A68FB68043319461046FCF76EFC7B6960
:103E500018461837BD4680BD040B0020000B00201B
:103E600080B58CB002AF7AE0BB68002B76DB3B6993
:103E70007B627B6A5B69002B04D07B6A0433184643
:103E8000FCF78CFC3B1D1846FFF788FF3862BB68C7
:103E9000092B64D801A252F823F000BFC53E0008E8
:103EA000C53E0008C53E00085F3F00081F3F0008F0
:103EB000553F0008C53E0008C53E00085F3F0008AA
:103EC0001F3F0008FA687B6A9B69D118FB683A6A51
:103ED000786AFFF783FF0346012B40D17B6A5B6A58
:103EE000786A98477B6ADB69012B38D1FA687B6A6C
:103EF0009B691A440023009300230021786AFFF78E
:103F000023FEF861FB69002B29D14FF0100383F3E6
:103F10001188BFF36F8FBFF34F8FBB61FEE7FA6865
:103F20007B6A9A617B6A9B69002B09D14FF0100371
:103F300083F31188BFF36F8FBFF34F8F7B61FEE771
:103F40007B6A9A693B6AD1183B6A3A6A786AFFF7DA
:103F500045FF04E0786A00F007FC00E000BF084B72
:103F6000186807F1080100230022FCF7EBFF034665
:103F7000002B7FF479AF00BF2837BD4680BD00BF5E
:103F8000080B002080B588B002AF44E02B4B1B68C3
:103F9000DB681B683B61294B1B68DB68DB68FB60E7
:103FA000FB6804331846FCF7F9FBFB685B6AF868AA
:103FB0009847FB68DB69012B2DD1FB689B693A6947
:103FC0001344BB60BA683B699A420ED9FB68BA6871
:103FD0005A60FB68FA681A61184B1A68FB68043368
:103FE00019461046FCF7A1FB15E0002300930023BF
:103FF0003A690021F868FFF7A7FD78607B68002B1D
:1040000009D14FF0100383F31188BFF36F8FBFF313
:104010004F8F3B60FEE7094B1B681B68002BB5D137
:10402000064B1B687B61064B1B68044A1360044AFD
:104030007B69136000BF1837BD4680BD000B0020B0
:10404000040B002080B582B000AF00F0BBF91B4B21
:104050001B68002B2BD11A48FCF716FB1948FCF7FC
:1040600013FB194B164A1A60184B164A1A600022A5
:104070000C210A20FCF724FC0246104B1A600F4B5F
:104080001B68002B09D14FF0100383F31188BFF395
:104090006F8FBFF34F8F7B60FEE7084B1B68002BD1
:1040A00005D0064B1B680A491846FDF715FB00F0C2
:1040B000B7F900BF0837BD4680BD00BF080B002020
:1040C000D80A0020EC0A0020000B0020040B00207E
:1040D000686D010880B586B000AF78607B687B6151
:1040E0007B68002B09D14FF0100383F31188BFF3D5
:1040F0006F8FBFF34F8FFB60FEE700F063F97B69C2
:104100005B69002B14BF01230023DBB23B6100F08D
:1041100087F93B6918461837BD4680BD80B586B023
:1041200000AF78607B687B617B68002B09D14FF022
:10413000100383F31188BFF36F8FBFF34F8FFB60C2
:10414000FEE700F03FF97B691B6A3B6100F068F90C
:104150003B6918461837BD4680BD80B584B000AFB6
:10416000786039607B68FB607B68002B09D14FF079
:10417000100383F31188BFF36F8FBFF34F8FBB60C2
:10418000FEE700F01FF9FB683A681A6200F048F990
:1041900000BF1037BD4680BD80B485B000AFF86069
:1041A000B9607A60FB68043BFB60FB684FF080728B
:1041B0001A60FB68043BFB60BA68FB681A60FB6826
:1041C000043BFB600C4AFB681A60FB68143BFB6015
:1041D0007A68FB681A60FB68043BFB60FB686FF061
:1041E00002021A60FB68203BFB60FB68184614372C
:1041F000BD465DF8047B7047FD41000880B483B084
:1042000000AF0C4B1B68B3F1FF3F09D04FF0100318
:1042100083F31188BFF36F8FBFF34F8F7B60FEE78F
:104220004FF0100383F31188BFF36F8FBFF34F8FED
:104230003B60FEE700000020064B19680868B0E804
:10424000F04F80F30988BFF36F8F4FF0000080F3C9
:1042500011887047D809002000BFE0480068006856
:1042600080F3088862B661B6BFF34F8FBFF36F8FDC
:1042700000DF00BF00BF80B586B000AF3B4B1B68BE
:104280003B4A934209D14FF0100383F31188BFF3E7
:104290006F8FBFF34F8F3B61FEE7344B1B68354A8E
:1042A000934209D14FF0100383F31188BFF36F8F4E
:1042B000BFF34F8FFB60FEE72F4B7B617B691B7861
:1042C000DBB2BB607B69FF221A707B691B78DBB2B3
:1042D000FB71FB79DBB203F01003DAB2274B1A70E3
:1042E000274B07221A6009E0254B1B68013B244A33
:1042F0001360FB79DBB25B00DBB2FB71FB79DBB2F5
:1043000003F08003802BEFD01D4B1B681B021C4A5F
:1043100013601B4B1B6803F4E063194A1360BB680E
:10432000DAB27B691A70174B1B68164A43F47003A4
:104330001360144B1B68134A43F07043136000F082
:10434000EBF8114B00221A6000F002F90F4B1B68CA
:104350000E4A43F040431360FFF77FFFFFF74EFF25
:10436000002318461837BD4680BD00BF00ED00E0B1
:1043700071C20F4170C20F4100E400E0100B002039
:10438000140B002020ED00E00000002034EF00E0DE
:1043900080B483B000AF0A4B1B68B3F57A7F09D0B5
:1043A0004FF0100383F31188BFF36F8FBFF34F8F6C
:1043B0007B60FEE700BF0C37BD465DF8047B7047AD
:1043C0000000002080B483B000AF4FF0100383F3EF
:1043D0001188BFF36F8FBFF34F8F7B600E4B1B684D
:1043E00001330D4A13600C4B1B68012B0ED10B4B94
:1043F0001B68DBB2002B09D04FF0100383F3118848
:10440000BFF36F8FBFF34F8F3B60FEE700BF0C37EA
:10441000BD465DF8047B70470000002004ED00E01D
:1044200080B483B000AF114B1B68002B09D14FF053
:10443000100383F31188BFF36F8FBFF34F8F7B603F
:10444000FEE70A4B1B68013B084A1360074B1B68D9
:10445000002B04D100233B603B6883F3118800BF2D
:104460000C37BD465DF8047B704700BF000000209C
:10447000EFF30980BFF36F8F144B1A681EF0100F13
:1044800008BF20ED108A20E9F04F10604DF8043D80
:104490004FF0100080F31188BFF34F8FBFF36F8F81
:1044A000FEF7E4F84FF0000080F3118808BC1968AB
:1044B0000868B0E8F04F1EF0100F08BFB0EC108A8B
:1044C00080F30988BFF36F8F704700BFD8090020C1
:1044D00000BF80B584B000AFEFF311824FF010033E
:1044E00083F31188BFF36F8FBFF34F8FFA60BB6008
:1044F000FDF7F6FF0346002B03D0064B4FF080522A
:104500001A6000237B607B6883F3118800BF10373B
:10451000BD4680BD04ED00E080B400AF084B1B68D1
:10452000084AA2FB03239B09074A013B1360074B80
:1045300007221A6000BFBD465DF8047B704700BFCC
:1045400008000020D34D621014E000E010E000E00D
:10455000DFF88C00016841F470010160704700BF12
:1045600080B485B000AFEFF30583FB60FB680F2BD1
:1045700013D9164AFB6813441B78FB72144B1B7843
:10458000FA7A9A4209D24FF0100383F31188BFF3ED
:104590006F8FBFF34F8F7B60FEE70E4B1B6803F4FA
:1045A000E0620D4B1B689A4209D94FF0100383F368
:1045B0001188BFF36F8FBFF34F8F3B60FEE700BFE3
:1045C0001437BD465DF8047B704700BFF0E300E0A0
:1045D000100B00200CED00E0140B002008ED00E0B3
:1045E00088ED00E080B58AB000AF78600023FB6101
:1045F000FDF708FE574B1B68002B01D100F02BF98B
:10460000554B1A687B681340002B40F08C807B6808
:10461000002B1CD008227B6813447B607B6803F06E
:104620000703002B13D07B6823F0070308337B605C
:104630007B6803F00703002B09D04FF0100383F3CE
:104640001188BFF36F8FBFF34F8F7B61FEE77B68ED
:10465000002B68D0414B1B687A689A4263D8404B64
:104660003B623F4B1B687B6204E07B6A3B627B6A78
:104670001B687B627B6A5B687A689A4203D97B6AB3
:104680001B68002BF1D1334B1B687A6A9A424AD0DF
:104690003B6A1B6808221344FB617B6A1A683B6A09
:1046A0001A607B6A5A687B68D21A08235B009A42B8
:1046B0001ED97A6A7B681344BB61BB6903F00703A8
:1046C000002B09D04FF0100383F31188BFF36F8FD5
:1046D000BFF34F8F3B61FEE77B6A5A687B68D21A53
:1046E000BB695A607B6A7A685A60B86900F016F94B
:1046F0001A4B1A687B6A5B68D31A184A1360174B07
:104700001A68184B1B689A4203D2144B1B68154A4F
:1047100013607B6A5A68104B1B681A437B6A5A60A5
:104720007B6A00221A60FDF77BFDFB6903F007033B
:10473000002B09D04FF0100383F31188BFF36F8F64
:10474000BFF34F8FFB60FEE7FB6918462837BD4675
:1047500080BD00BF208300202C8300202483002004
:10476000188300202883002080B586B000AF7860D1
:104770007B687B617B68002B46D008235B427A69AB
:1047800013447B617B693B613B695A68204B1B6822
:104790001340002B09D14FF0100383F31188BFF3AE
:1047A0006F8FBFF34F8FFB60FEE73B691B68002BE9
:1047B00009D04FF0100383F31188BFF36F8FBFF35D
:1047C0004F8FBB60FEE73B695A68114B1B68134073
:1047D000002B19D03B691B68002B15D13B695A6827
:1047E0000B4B1B68DB431A403B695A60FDF70AFD1F
:1047F0003B695A68074B1B681344064A13603869C3
:1048000000F08CF8FDF70CFD00BF1837BD4680BDE9
:104810002C8300202483002080B400AF034B1B684E
:104820001846BD465DF8047B704700BF2483002016
:1048300080B400AF034B1B681846BD465DF8047B8F
:10484000704700BF2883002080B400AF00BFBD4682
:104850005DF8047B704780B485B000AF4FF4F0433F
:10486000BB60284BFB60FB6803F00703002B0CD0F8
:10487000FB680733FB60FB6823F00703FB60BA6843
:10488000FB68D31A1F4A1344BB60FB687B601E4A57
:104890007B6813601C4B00225A607B68BA68134423
:1048A000FB600822FB689B1AFB60FB6823F0070390
:1048B000FB60FB68154A1360144B1B6800225A60AA
:1048C000124B1B6800221A607B683B603B68FA68E9
:1048D000D21A3B685A600D4B1A683B681A603B68F5
:1048E0005B680B4A13603B685B680A4A13600A4BBB
:1048F0004FF000421A6000BF1437BD465DF8047BDC
:10490000704700BF180B0020188300202083002070
:1049100028830020248300202C83002080B485B0CD
:1049200000AF7860284BFB6002E0FB681B68FB600F
:10493000FB681B687A689A42F7D8FB68BB60FB6823
:104940005B68BA6813447A689A4208D1FB685A686F
:104950007B685B681A44FB685A60FB687B607B6815
:10496000BB607B685B68BA681A44FB681B689A4244
:1049700018D1FB681A68154B1B689A420DD07B68EA
:104980005A68FB681B685B681A447B685A60FB685E
:104990001B681A687B681A6008E00C4B1A687B6811
:1049A0001A6003E0FB681A687B681A60FA687B6823
:1049B0009A4202D0FB687A681A6000BF1437BD467D
:1049C0005DF8047B704700BF18830020208300201F
:1049D00080B582B000AF78607B68002B01D10123E5
:1049E0005DE07B6893F85130DBB2002B06D17B6829
:1049F000002283F85020786800F07DF87B6802225E
:104A000083F851207B681B681A687B681B6822F05A
:104A100040021A607B685A687B689B681A437B680F
:104A2000DB681A437B681B691A437B685B691A431E
:104A30007B689B6903F400731A437B68DB691A4344
:104A40007B681B6A42EA03017B689A6A7B681B6881
:104A50000A431A607B689B691B0C03F004017B68A6
:104A60005A6A7B681B680A435A607B689B6AB3F585
:104A7000005F04D17B681B687A68D26A1A617B6820
:104A80001B68DA697B681B6822F40062DA617B6864
:104A900000225A657B68012283F8512000231846C2
:104AA0000837BD4680BD80B582B000AF78607B68B6
:104AB000002B01D101231AE07B68022283F85120E8
:104AC0007B681B681A687B681B6822F040021A60CA
:104AD000786800F01AF87B6800225A657B6800222B
:104AE00083F851207B68002283F850200023184669
:104AF0000837BD4680BD80B483B000AF786000BF8A
:104B00000C37BD465DF8047B704780B483B000AFBE
:104B1000786000BF0C37BD465DF8047B704780B5F8
:104B20008AB002AFF860B9603B601346FB80002397
:104B3000BB610023FB77FB6893F85030012B01D158
:104B4000022348E1FB68012283F850200BF0A8FD06
:104B5000B861FB6893F85130DBB2012B02D002231D
:104B6000FB772FE1BB68002B02D0FB88002B02D122
:104B70000123FB7726E1FB68032283F85120FB68C1
:104B800000225A65FB68BA681A63FB68FA889A863D
:104B9000FB68FA88DA86FB6800229A63FB680022C9
:104BA0009A87FB680022DA87FB6800225A64FB6858
:104BB00000221A64FB689B68B3F5004F07D1FB68BD
:104BC0001B681A68FB681B6842F480421A60FB6825
:104BD0009B6AB3F5005F10D1FB681B681968FB681E
:104BE0001A684DF6FF730B401360FB681B681A6868
:104BF000FB681B6842F400521A60FB681B681B6864
:104C000003F04003402B07D0FB681B681A68FB6861
:104C10001B6842F040021A60FB68DB68B3F5006F66
:104C200047D1FB685B68002B04D0FB68DB8E9BB22E
:104C3000012B38D1BB681A88FB681B68DA60BB6837
:104C40000233BB60FB68DB8E9BB2013B9AB2FB6810
:104C5000DA8628E0FB681B689B6803F00203022BDE
:104C60000FD1BB681A88FB681B68DA60BB68023327
:104C7000BB60FB68DB8E9BB2013B9AB2FB68DA86B5
:104C800011E03B68002B0BD03B68B3F1FF3F0AD02B
:104C90000BF006FD0246BB69D31A3A689A4202D865
:104CA0000323FB778EE0FB68DB8E9BB2002BD1D118
:104CB00048E0FB685B68002B04D0FB68DB8E9BB28E
:104CC000012B3AD1FB681B680C33BA6812781A7052
:104CD000BB680133BB60FB68DB8E9BB2013B9AB2C1
:104CE000FB68DA8629E0FB681B689B6803F0020317
:104CF000022B10D1FB681B680C33BA6812781A704B
:104D0000BB680133BB60FB68DB8E9BB2013B9AB290
:104D1000FB68DA8611E03B68002B0BD03B68B3F1EF
:104D2000FF3F0AD00BF0BCFC0246BB69D31A3A68BD
:104D30009A4202D80323FB7744E0FB68DB8E9BB2E8
:104D4000002BD0D1BB6900933B6801220221F86897
:104D500002F00FF80346002B02D00323FB7731E06B
:104D6000BA693968F86802F06DF80346002B05D07F
:104D70000123FB77FB6820225A6523E0FB689B68D0
:104D8000002B0AD100237B61FB681B68DB687B6119
:104D9000FB681B689B687B617B69FB689B6AB3F55A
:104DA000005F07D1FB681B681A68FB681B6842F448
:104DB00080521A60FB685B6D002B02D00123FB77E9
:104DC00000E000BFFB68012283F85120FB6800224D
:104DD00083F85020FB7F18462037BD4680BD80B544
:104DE0008AB002AFF860B9603B601346FB800023D5
:104DF000FB820023BB610023FB77FB685B68B3F594
:104E0000827F12D1FB689B68002B0ED1FB680422C5
:104E100083F85120FA883B6800931346BA68B96852
:104E2000F86800F065F903465EE1FB6893F85030DE
:104E3000012B01D1022357E1FB68012283F85020A6
:104E40000BF02EFCB861FB6893F85130DBB2012BFC
:104E500002D00223FB773EE1BB68002B02D0FB8827
:104E6000002B02D10123FB7735E1FB68042283F894
:104E70005120FB6800225A65FB68BA689A63FB6898
:104E8000FA889A87FB68FA88DA87FB6800221A6337
:104E9000FB6800229A86FB680022DA86FB68002203
:104EA0001A64FB6800225A64FB689B6AB3F5005FD2
:104EB00017D1FB681B681968FB681A684DF6FF7309
:104EC0000B401360FB681B681A68FB681B6842F4A0
:104ED00000521A60FB68DB8F9BB2013B9AB2FB6801
:104EE000DA87FB689B68B3F5004F07D1FB681B6846
:104EF0001A68FB681B6822F480421A60FB681B6812
:104F00001B6803F04003402B07D0FB681B681A683E
:104F1000FB681B6842F040021A60FB68DB68002BEC
:104F20005BD12AE0FB681B689B6803F00103012B3F
:104F300011D1FB681B680C331B78DAB2BB681A709E
:104F4000BB680133BB60FB68DB8F9BB2013B9AB24D
:104F5000FB68DA8711E03B68002B0BD03B68B3F1AC
:104F6000FF3F0AD00BF09CFB0246BB69D31A3A689C
:104F70009A4202D80323FB77ADE0FB68DB8F9BB23C
:104F8000002BCFD12EE0FB681B689B6803F0010368
:104F9000012B10D1FB681B68DB689AB2BB681A80D2
:104FA000BB680233BB60FB68DB8F9BB2013B9AB2EC
:104FB000FB68DA8711E03B68002B0BD03B68B3F14C
:104FC000FF3F0AD00BF06CFB0246BB69D31A3A686C
:104FD0009A4202D80323FB777DE0FB68DB8F9BB20C
:104FE000002BD0D1FB689B6AB3F5005F42D1FB6810
:104FF0001B681A68FB681B6842F480521A60BB6920
:1050000000933B6801220121F86801F0B2FE0346DB
:10501000002B02D00323FB775DE0FB68DB68B3F570
:10502000006F06D1FB681B68DB689AB2BB681A8008
:1050300006E0FB681B680C331B78DAB2BB681A7099
:10504000BB6900933B6801220121F86801F091FEE1
:105050000346002B08D0FB685B6D43F00202FB683F
:105060005A650323FB7736E0FB681B68DB689BB25D
:10507000FB82FB8AFB685B68B3F5827F11D1FB681A
:105080009B68B3F5004F04D0FB689B68B3F5806F55
:1050900007D1FB681B681A68FB681B6822F0400296
:1050A0001A60FB681B689B6803F01003102B0AD181
:1050B000FB685B6D43F00202FB685A65FB681B6886
:1050C0004FF6EF729A60FB685B6D002B02D00123F4
:1050D000FB7700E000BFFB68012283F85120FB68EA
:1050E000002283F85020FB7F18462037BD4680BD44
:1050F00080B58EB002AFF860B9607A607B80002323
:105100007B6200233B6200237B830023FB6101233E
:10511000FB62002387F82B30FB6893F85030012B9B
:1051200001D10223F2E1FB68012283F850200BF049
:10513000B7FAF861FB6893F85130DBB27B62FB6829
:105140005B683B627B6A012B0ED03B6AB3F5827FC2
:1051500006D1FB689B68002B02D17B6A042B03D02D
:10516000022387F82B30C7E1BB68002B05D07B6892
:10517000002B02D07B88002B03D1012387F82B3032
:10518000BAE1FB6893F85130DBB2012B03D1FB6825
:10519000052283F85120FB6800225A65FB687A6873
:1051A0009A63FB687A88DA87FB687A889A87FB6853
:1051B000BA681A63FB687A88DA86FB687A889A8606
:1051C000FB6800221A64FB6800225A64FB689B6A31
:1051D000B3F5005F10D1FB681B681968FB681A689B
:1051E0004DF6FF730B401360FB681B681A68FB6881
:1051F0001B6842F400521A60FB681B681B6803F0CE
:105200004003402B07D0FB681B681A68FB681B68CB
:1052100042F040021A60FB68DB68B3F5006F40F0B3
:105220008480FB685B68002B04D0FB68DB8E9BB23C
:10523000012B6FD1BB681A88FB681B68DA60BB68FA
:105240000233BB60FB68DB8E9BB2013B9AB2FB680A
:10525000DA865FE0FB6A002B2ED0FB68DB8E9BB208
:10526000002B29D0FB681B689B6803F00203022B0C
:1052700022D1BB681A88FB681B68DA60BB680233FE
:10528000BB60FB68DB8E9BB2013B9AB2FB68DA869F
:105290000023FB62FB68DB8E9BB2002B0CD1FB680A
:1052A0009B6AB3F5005F07D1FB681B681A68FB684F
:1052B0001B6842F480521A60FB68DB8F9BB2002BA4
:1052C00018D0FB681B689B6803F00103012B11D108
:1052D000FB681B68DB689AB27B681A807B680233C4
:1052E0007B60FB68DB8F9BB2013B9AB2FB68DA877D
:1052F0000123FB62BB6BB3F1FF3F0BD00BF0D0F986
:105300000246FB69D31ABA6B9A4203D8032387F883
:105310002B30F1E0FB68DB8E9BB2002B9AD1FB684F
:10532000DB8F9BB2002B95D182E0FB685B68002B82
:1053300004D0FB68DB8E9BB2012B6FD1FB681B682E
:105340000C33BA6812781A70BB680133BB60FB6813
:10535000DB8E9BB2013B9AB2FB68DA865EE0FB6AA9
:10536000002B2ED0FB68DB8E9BB2002B29D0FB6874
:105370001B689B6803F00203022B22D1BB685A1CF6
:10538000BA60FA6812680C321B781370FB68DB8E07
:105390009BB2013B9AB2FB68DA860023FB62FB6892
:1053A000DB8E9BB2002B0CD1FB689B6AB3F5005FD0
:1053B00007D1FB681B681A68FB681B6842F48052BF
:1053C0001A60FB68DB8F9BB2002B17D0FB681B6851
:1053D0009B6803F00103012B10D1FB681B68D9689F
:1053E0007B685A1C7A60CAB21A70FB68DB8F9BB26A
:1053F000013B9AB2FB68DA870123FB62BB6BB3F116
:10540000FF3F0BD00BF04CF90246FB69D31ABA6B85
:105410009A4203D8032387F82B306DE0FB68DB8EBC
:105420009BB2002B9BD1FB68DB8F9BB2002B96D1EC
:10543000FB689B6AB3F5005F1AD1FB690093BB6BF5
:1054400001220121F86801F094FC0346002B09D0E9
:10545000FB685B6D43F00202FB685A65032387F823
:105460002B3049E0FB681B68DB689BB27B837B8B3E
:10547000FB681B689B6803F01003102B0DD1FB68C1
:105480005B6D43F00202FB685A65FB681B684FF6D0
:10549000EF729A60012387F82B30FB690093BB6B96
:1054A00001220221F86801F064FC0346002B03D0BE
:1054B000032387F82B301FE0FA69B96BF86801F015
:1054C000C1FC0346002B06D0012387F82B30FB6874
:1054D00020225A6510E0FB689B68002B0BD100234B
:1054E0007B61FB681B68DB687B61FB681B689B68F2
:1054F0007B617B6900E000BFFB68012283F85120DB
:10550000FB68002283F8502097F82B30184630377C
:10551000BD4680BD80B487B000AFF860B960134667
:10552000FB800023FB75FB6893F85030012B01D101
:1055300002238AE0FB68012283F85020BB68002B1D
:1055400002D0FB88002B02D10123FB7578E0FB68B9
:1055500093F85130DBB2012B02D00223FB756FE0D0
:10556000FB68032283F85120FB6800225A65FB6820
:10557000BA681A63FB68FA889A86FB68FA88DA8642
:10558000FB6800229A63FB6800229A87FB6800226E
:10559000DA87FB6800221A64FB68DB68002B03D003
:1055A000FB682D4A5A6402E0FB682C4A5A64FB6887
:1055B0009B68B3F5004F07D1FB681B681A68FB684E
:1055C0001B6842F480421A60FB689B6AB3F5005F77
:1055D00010D1FB681B681968FB681A684DF6FF73E9
:1055E0000B401360FB681B681A68FB681B6842F479
:1055F00000521A60FB689B68002B08D1FB681B688F
:105600005A68FB681B6842F080025A6007E0FB683A
:105610001B685A68FB681B6842F0A0025A60FB686E
:105620001B681B6803F04003402B08D0FB681B6815
:105630001A68FB681B6842F040021A6000E000BF75
:10564000FB68002283F85020FB7D18461C37BD46BE
:105650005DF8047B704700BF156D0008B96C000849
:1056600080B586B000AFF860B9601346FB800023B8
:10567000FB75FB689B68002B10D1FB685B68B3F57A
:10568000827F0BD1FB68042283F85120FB88BA6823
:10569000B968F86800F090F8034684E0FB6893F876
:1056A0005030012B01D102237DE0FB68012283F8F9
:1056B0005020FB6893F85130DBB2012B02D002235B
:1056C000FB756BE0BB68002B02D0FB88002B02D17E
:1056D0000123FB7562E0FB68042283F85120FB681C
:1056E00000225A65FB68BA689A63FB68FA889A8751
:1056F000FB68FA88DA87FB6800221A63FB680022DD
:105700009A86FB680022DA86FB6800225A64FB68EE
:10571000DB68002B03D0FB68254A1A6402E0FB68B3
:10572000244A1A64FB689B68B3F5004F07D1FB68F5
:105730001B681A68FB681B6822F480421A60FB68C9
:105740009B6AB3F5005F10D1FB681B681968FB68A2
:105750001A684DF6FF730B401360FB681B681A68EC
:10576000FB681B6842F400521A60FB681B685A68A9
:10577000FB681B6842F060025A60FB681B681B688C
:1057800003F04003402B08D0FB681B681A68FB68D5
:105790001B6842F040021A6000E000BFFB68002274
:1057A00083F85020FB7D18461837BD4680BD00BFEA
:1057B0003B6C0008876B000880B489B000AFF860CC
:1057C000B9607A607B800023BB6100237B6100238A
:1057D000FB77FB6893F85030012B01D102238CE05A
:1057E000FB68012283F85020FB6893F85130DBB24C
:1057F000BB61FB685B687B61BB69012B0DD07B697A
:10580000B3F5827F06D1FB689B68002B02D1BB6990
:10581000042B02D00223FB776AE0BB68002B05D083
:105820007B68002B02D07B88002B02D10123FB7701
:105830005EE0FB6893F85130DBB2012B03D1FB68CB
:10584000052283F85120FB6800225A65FB68BA687C
:105850001A63FB687A889A86FB687A88DA86FB681E
:105860007A689A63FB687A889A87FB687A88DA870D
:10587000FB68DB68002B06D0FB68234A1A64FB68D0
:10588000224A5A6405E0FB68214A1A64FB68214AEF
:105890005A64FB689B6AB3F5005F10D1FB681B6814
:1058A0001968FB681A684DF6FF730B401360FB68BC
:1058B0001B681A68FB681B6842F400521A60FB6898
:1058C0001B685A68FB681B6842F0E0025A60FB687C
:1058D0001B681B6803F04003402B08D0FB681B6863
:1058E0001A68FB681B6842F040021A6000E000BFC3
:1058F000FB68002283F85020FB7F18462437BD4602
:105900005DF8047B704700BF2D6A0008D76A000865
:10591000EF680008A769000880B586B000AFF8609E
:10592000B9601346FB800023FB75FB6893F8503089
:10593000012B01D1022399E0FB68012283F850205A
:10594000FB6893F85130DBB2012B02D00223FB75C8
:1059500087E0BB68002B02D0FB88002B02D101231B
:10596000FB757EE0FB68032283F85120FB68002270
:105970005A65FB68BA681A63FB68FA889A86FB68FE
:10598000FA88DA86FB6800229A63FB6800225A6470
:10599000FB6800221A64FB6800229A87FB680022D9
:1059A000DA87FB689B68B3F5004F07D1FB681B687B
:1059B0001A68FB681B6842F480421A60FB689B6AA5
:1059C000B3F5005F10D1FB681B681968FB681A68A3
:1059D0004DF6FF730B401360FB681B681A68FB6889
:1059E0001B6842F400521A60FB689B6C214A1A64DF
:1059F000FB689B6C204ADA63FB689B6C1F4ADA6485
:105A0000FB689B6C00221A65FB68986CFB681B6B3B
:105A10001946FB681B680C331A46FB68DB8E9BB289
:105A200003F023FFFB681B681B6803F04003402B57
:105A300007D0FB681B681A68FB681B6842F04002CD
:105A40001A60FB681B685A68FB681B6842F02002FA
:105A50005A60FB681B685A68FB681B6842F00202C8
:105A60005A60FB68002283F85020FB7D18461837E7
:105A7000BD4680BDEB660008816400083F670008F2
:105A800080B586B000AFF860B9601346FB80002394
:105A9000FB75FB689B68002B10D1FB685B68B3F556
:105AA000827F0BD1FB68042283F85120FB88BA68FF
:105AB000B968F86800F0AAF803469DE0FB6893F81F
:105AC0005030012B01D1022396E0FB68012283F8BC
:105AD0005020FB6893F85130DBB2012B02D0022337
:105AE000FB7584E0BB68002B02D0FB88002B02D141
